:020000020000FC
:100000000C94141E0C9410000C9410000C9410000E
:100010000C9410000C9410000C9410000C943301FC
:10002000189597D078940895509286015092870041
:1000300000918B01002311F401E901C003E8009352
:1000400086000093870100916F0100936E0100917B
:1000500072010093710108E200939401089501E098
:10006000009386015092870000918B01002311F4C8
:1000700001E701C003E60093860000938701009129
:10008000700100936E0100917301009371010CE205
:1000900000939401089502E0009386015092870036
:1000A0000BEA009386000093870100916F01009393
:1000B0006E010091720100937101089508EC0093A4
:1000C0006F0104E40093720100EF009370010AE3F2
:1000D0000093730106EF0093910108E000939201F1
:1000E0000093930100E000931D020DE600931E02B1
:1000F00000E000931F0201E70093200200E000935C
:10010000740105E00093750108EE0093760108E0A4
:100110000093770100E80093780107EB00937901E1
:1001200001E000938B010EE100938D0100E5009347
:1001300088015092890150928A015092B4015092E4
:10014000B50150920B025092280209E100939501EB
:1001500008950091B4012091B501239521702023C9
:100160002093B50150928001509281010091740159
:1001700000937C010091750100937D01009176014F
:1001800000937E010091770100937F010091780137
:1001900000938201009179010093830100EC021B1E
:1001A00020916E01020F20917101020F00937A01DC
:1001B00050927B01089500916A01039500936A01B2
:1001C00029F410916B01139510936B010895A09180
:1001D0007401B091750129E138E200E20E949410A7
:1001E000A0917601B091770129E138E200EF0C94FB
:1001F0009410E0E3F9E3AA27B091910138E021E2FD
:100200005D922A95E9F72FE50E2E1F2E05910D938D
:100210002A95E1F721E20FEF0D932A95E9F72FE5F3
:10022000E02DF12D059100950D932A95D9F73A957A
:1002300031F7089543DF51BE09E103BF000050923A
:1002400085000BE40093840009E000938A0000E13C
:1002500000937D0000E100937C007BDF50928401DD
:10026000E3DEB5DFC6CF0F930FB70F931F93009157
:10027000B3011091AE0110FD02BD00917B0100237E
:1002800009F492C3EF93FF932F933F934F938F9370
:100290009F93E0918800F09189000DE5E00F01E067
:1002A000F01F8091870190E08C96E81BF90B099470
:1002B0000000000000000000000034E041E080E8A1
:1002C00000918601023008F0ABC3CF93DF93AF9368
:1002D000BF9300918B01002359F0C0918F01D09101
:1002E0009001088110918C0110FD005808830000D6
:1002F000A0917C01B0917D01C0917E01D0917F01E0
:1003000000918001F0919101F00F909128020091ED
:100310008601002349F1000085BFED91199100810C
:1003200055BE192705BB1BBB37B947B985BFED9132
:100330001991008155BE192705BB1BBB37B947B9B9
:1003400085BFED911991008155BE192705BB1BBBD7
:1003500037B947B985BFED911991008155BE19276D
:1003600005BB1BBB37B947B985BFED91199100811A
:1003700055BE192705BB1BBB37B947B985BFED91E2
:100380001991008155BE192705BB1BBB37B947B969
:1003900085BFED911991008155BE192705BB1BBB87
:1003A00037B947B985BFED911991008155BE19271D
:1003B00005BB1BBB37B947B985BFED9119910081CA
:1003C00055BE192705BB1BBB37B947B985BFED9192
:1003D0001991008155BE192705BB1BBB37B947B919
:1003E00085BFED911991008155BE192705BB1BBB37
:1003F00037B947B985BFED911991008155BE1927CD
:1004000005BB1BBB37B947B985BFED911991008179
:1004100055BE192705BB1BBB37B947B985BFED9141
:100420001991008155BE192705BB1BBB37B947B9C8
:1004300085BFED911991008155BE192705BB1BBBE6
:1004400037B947B985BFED911991008155BE19277C
:1004500005BB1BBB37B947B985BFED911991008129
:1004600055BE192705BB1BBB37B947B985BFED91F1
:100470001991008155BE192705BB1BBB37B947B978
:1004800085BFED911991008155BE192705BB1BBB96
:1004900037B947B985BFED911991008155BE19272C
:1004A00005BB1BBB37B947B985BFED9119910081D9
:1004B00055BE192705BB1BBB37B947B985BFED91A1
:1004C0001991008155BE192705BB1BBB37B947B928
:1004D00085BFED911991008155BE192705BB1BBB46
:1004E00037B947B985BFED911991008155BE1927DC
:1004F00005BB1BBB37B947B985BFED911991008189
:1005000055BE192705BB1BBB37B947B985BFED9150
:100510001991008155BE192705BB1BBB37B947B9D7
:1005200085BFED911991008155BE192705BB1BBBF5
:1005300037B947B985BFED911991008155BE19278B
:1005400005BB1BBB37B947B985BFED911991008138
:1005500055BE192705BB1BBB37B947B985BFED9100
:100560001991008155BE192705BB1BBB37B947B987
:1005700085BFED911991008155BE192705BB1BBBA5
:1005800037B947B985BFED911991008155BE19273B
:1005900005BB1BBB37B947B985BFED9119910081E8
:1005A00055BE192705BB1BBB37B947B985BFED91B0
:1005B0001991008155BE192705BB1BBB37B947B937
:1005C00085BFED911991008155BE192705BB1BBB55
:1005D00037B947B985BFED911991008155BE1927EB
:1005E00005BB1BBB37B947B985BFED911991008198
:1005F00055BE192705BB1BBB37B947B985BFED9160
:100600001991008155BE192705BB1BBB37B947B9E6
:1006100085BFED911991008155BE192705BB1BBB04
:1006200037B947B985BFED911991008155BE19279A
:1006300005BB1BBB37B947B985BFED911991008147
:1006400055BE192705BB1BBB37B947B985BFED910F
:100650001991008155BE192705BB1BBB37B947B996
:1006600085BFED911991008155BE192705BB1BBBB4
:1006700037B947B985BFED911991008155BE19274A
:1006800005BB1BBB37B947B95BBA000000000000CF
:100690000000BF91AF91DF91CF9135E037B947B9F5
:1006A00085BF00918B01002331F100918C01002363
:1006B00039F0E0918F01F0919001008100580083A2
:1006C00010917B01012F0770B1F520913101222398
:1006D00099F0169516951695211769F500918E01DA
:1006E00010918D01101768F450928C01110F1017A2
:1006F000F8F400271EC01FC000916E011017D9F436
:10070000EDCF0F921F9211E010938C0110913001E8
:1007100038E2239F010E151C30917401030E3091B5
:100720007501131E00928F01109290011F900F907F
:10073000039500938E0130917B01409185014230F9
:10074000B9F410918901311711F4A5DC05C010919D
:100750008A01311709F468DC80918201909183014C
:1007600000918801800F951D8093820190938301F1
:1007700000918001039510919201011709F4052D54
:1007800000938001002361F480917C0190917D01B0
:1007900010919401810F951D80937C0190937D01B0
:1007A00000918101039510919301011709F4052D22
:1007B00000938101002361F480917E0190917F017B
:1007C00010919401810F951D80937E0190937F017C
:1007D00010916E01311709F48EC0339530937B016F
:1007E000032F9F918F914F913F912F91FF91EF9107
:1007F0000F7039F52F93EF93FF930E94801211230E
:1008000069F0209122012A3009F42227E4E2F1E084
:10081000E20FF51D008323952093220100910B0226
:10082000002361F010910C021A9531F424E010912C
:100830000A022123622A102F10930C02FF91EF91DC
:100840002F911091AC011123E9F15092AE0110915A
:10085000AD011A9519F01093AD0134C01091AC019F
:100860001093AD0111E01093AE01EF93FF932F931E
:1008700022B3122F00916D0103FD186012BBE091AD
:10088000AF01F091B0010191E093AF01F093B0019D
:1008900022BB0093B301E091B101F091B20102914A
:1008A000E093B101F093B201EF2B49F400912902DA
:1008B000002369F45092AC015092AE0157BC2F91C5
:1008C000FF91EF911F910F910FBF0F91189500911C
:1008D0002B020093AF0100912C020093B001009114
:1008E0002D020093B10100912E020093B20101E0AC
:1008F00000932A02E4CF2DDC7894009184011091BA
:100900008501011759F000938501002331F0013072
:1009100011F0C1DB03C0A3DB01C086DB5092A9014B
:10092000009109020023C9F0009108020023A9F4F4
:100930005F936F93AF93BF93CF93DF930E94E818B9
:10094000E093AA01F093AB01DF91CF91BF91AF91FA
:100950006F915F910FEF0093A90100910A0200715E
:1009600021F000E1602A00273CCF0091A90100237B
:10097000C1F00F921F925F936F937F93AF93BF93DA
:10098000CF93DF93C091AA01D091AB010E941119BE
:10099000DF91CF91BF91AF917F916F915F911F9048
:1009A0000F9009DC00271DCF00917A010395009379
:1009B0007A011091B501112339F5003059F0053055
:1009C00081F00A3039F00E3099F010917101011761
:1009D000B1F00ECF02E300938B0006E20093840097
:1009E00007CF02E200938B000BE40093840000CF5A
:1009F00003E300938B000BE400938400F9CE11E035
:100A000010937B010027F4CE003021F3063049F328
:100A10000B3001F3003161F3109171011A95D7CFBA
:100A2000E0918201F091830192B3192F00916D0141
:100A300000FD186012BB0CEC05BB25E0000085BF73
:100A4000119155BE1BBB37B947B985BF119155BE32
:100A50001BBB27B947B985BF119155BE1BBB37B921
:100A600047B985BF119155BE1BBB27B947B985BF93
:100A7000119155BE1BBB37B947B985BF119155BE02
:100A80001BBB27B947B985BF119155BE1BBB37B9F1
:100A900047B985BF119155BE1BBB27B947B985BF63
:100AA000119155BE1BBB37B947B985BF119155BED2
:100AB0001BBB27B947B985BF119155BE1BBB37B9C1
:100AC00047B985BF119155BE1BBB27B947B985BF33
:100AD000119155BE1BBB37B947B985BF119155BEA2
:100AE0001BBB27B947B985BF119155BE1BBB37B991
:100AF00047B985BF119155BE1BBB27B947B985BF03
:100B0000119155BE1BBB37B947B985BF119155BE71
:100B10001BBB27B947B985BF119155BE1BBB37B960
:100B200047B985BF119155BE1BBB27B947B985BFD2
:100B3000119155BE1BBB37B947B985BF119155BE41
:100B40001BBB27B947B985BF119155BE1BBB37B930
:100B500047B985BF119155BE1BBB27B947B985BFA2
:100B6000119155BE1BBB37B947B985BF119155BE11
:100B70001BBB27B947B985BF119155BE1BBB37B900
:100B800047B985BF119155BE1BBB27B947B985BF72
:100B9000119155BE1BBB37B947B985BF119155BEE1
:100BA0001BBB27B947B985BF119155BE1BBB37B9D0
:100BB00047B985BF119155BE1BBB27B947B985BF42
:100BC000119155BE1BBB37B947B985BF119155BEB1
:100BD0001BBB27B947B985BF119155BE1BBB37B9A0
:100BE00047B985BF119155BE1BBB27B947B985BF12
:100BF000119155BE1BBB37B947B985BF119155BE81
:100C00001BBB27B947B985BF119155BE1BBB37B96F
:100C100047B985BF119155BE1BBB27B947B985BFE1
:100C2000119155BE1BBB37B947B985BF119155BE50
:100C30001BBB27B947B985BF119155BE1BBB37B93F
:100C400047B985BF119155BE1BBB27B947B985BFB1
:100C5000119155BE1BBB37B947B985BF119155BE20
:100C60001BBB27B947B985BF119155BE1BBB37B90F
:100C700047B985BF119155BE1BBB27B947B985BF81
:100C8000119155BE1BBB37B947B985BF119155BEF0
:100C90001BBB27B947B985BF119155BE1BBB37B9DF
:100CA00047B985BF119155BE1BBB27B947B985BF51
:100CB000119155BE1BBB37B947B985BF119155BEC0
:100CC0001BBB27B947B985BF119155BE1BBB37B9AF
:100CD00047B985BF119155BE1BBB27B947B985BF21
:100CE000119155BE1BBB37B947B985BF119155BE90
:100CF0001BBB27B947B985BF119155BE1BBB37B97F
:100D000047B985BF119155BE1BBB27B947B985BFF0
:100D1000119155BE1BBB37B947B985BF119155BE5F
:100D20001BBB27B947B985BF119155BE1BBB37B94E
:100D300047B985BF119155BE1BBB27B947B985BFC0
:100D4000119155BE1BBB37B947B985BF119155BE2F
:100D50001BBB27B947B985BF119155BE1BBB37B91E
:100D600047B985BF119155BE1BBB27B947B985BF90
:100D7000119155BE1BBB37B947B985BF119155BEFF
:100D80001BBB27B947B985BF119155BE1BBB37B9EE
:100D900047B985BF119155BE1BBB27B947B985BF60
:100DA000119155BE1BBB37B947B985BF119155BECF
:100DB0001BBB27B947B985BF119155BE1BBB37B9BE
:100DC00047B985BF119155BE1BBB27B947B985BF30
:100DD000119155BE1BBB37B947B985BF119155BE9F
:100DE0001BBB27B947B985BF119155BE1BBB37B98E
:100DF00047B985BF119155BE1BBB27B947B95BBA2F
:100E000092BB108135E037B947B900E805BF93CCF4
:100E1000F7C6299022200FB7997F0670902B0C946B
:100E2000000EE991F3E0208022200FB7997F067031
:100E3000902B0C94000EE991F3E0E30D208022202A
:100E40000FB7997F0670902B0C94000EE991F991E1
:100E5000F80D208022200FB7997F0670902B0C94FC
:100E6000000EE991F991E30DF81D208022200FB7C3
:100E7000997F0670902B0C94000EE991F991E40D86
:100E8000F81D208022200FB7997F0670902B0C94BC
:100E9000000EB3E0A991A30DED91FD91F80D208016
:100EA00022200FB7997F0670902B0C94000EB3E0B0
:100EB000A991ED91FD91E40DF81D208022200FB73E
:100EC000997F0670902B0C94000E399033200FB749
:100ED000997F0670902B0C94000EE991F3E030801E
:100EE00033200FB7997F0670902B0C94000EE99178
:100EF000F3E0E40D308033200FB7997F0670902B1C
:100F00000C94000EE991F991F80D308033200FB761
:100F1000997F0670902B0C94000EE991F991E40DE5
:100F2000F81D308033200FB7997F0670902B0C94FA
:100F3000000E499044200FB7997F0670902B0C94B7
:100F4000000EE991F3E0408044200FB7997F0670CE
:100F5000902B0C94000EE991F3E0E30D40804420C7
:100F60000FB7997F0670902B0C94000EE991F991C0
:100F7000F80D408044200FB7997F0670902B0C9499
:100F8000000EE991F991E30DF81D408044200FB760
:100F9000997F0670902B0C94000EE991F3E020826B
:100FA0002FC6E991F3E0E30D20822AC6E991F99179
:100FB000F80D208225C6E991F991E30DF81D2082F4
:100FC0001FC6E991F991E40DF81D208219C6B3E01E
:100FD000A991A30DED91FD91F80D208211C6B3E00A
:100FE000A991ED91FD91E40DF81D208209C6E991CA
:100FF000F3E0308205C6E991F3E0E40D308200C6EB
:10100000E991F991F80D3082FBC5E991F3E0408256
:10101000F7C5E991F3E0E30D4082F2C5E991F9915A
:10102000F80D4082EDC5322C33200FB7997F067042
:10103000902B0C94000E232C22200FB7997F067062
:10104000902B0C94000E422C44200FB7997F067011
:10105000902B0C94000E242C22200FB7997F067041
:10106000902B0C94000E372C33200FB7997F06700D
:10107000902B0C94000E732CC3C5E02FEF70122D33
:101080001F70889490FD08941E1F1A3018F01A5F84
:101090001F70105FE22DE07FFF27007FE00FF51D3E
:1010A000E10FF51D907FFF2349F4E03A38F42E2E2E
:1010B00022200FB70E70902B0C94000E00E6E00F6C
:1010C000F51D9160F4CF099196FDD7CF889490FDDE
:1010D0000894201E0FB7907F0F70902B0C94000E79
:1010E000E991F3E0008196FDC8CF889490FD0894C3
:1010F000201E0FB7907F0F70902B0C94000EE9917B
:10110000F3E0E30D008196FDB8CF889490FD08943C
:10111000201E0FB7907F0F70902B0C94000EE9915A
:10112000F991F80D008196FDA8CF889490FD089460
:10113000201E0FB7907F0F70902B0C94000EE9913A
:10114000F991E30DF81D008196FD97CF889490FDED
:101150000894201E0FB7907F0F70902B0C94000EF8
:10116000E991F991E40DF81D008196FD86CF8894F0
:1011700090FD0894201E0FB7907F0F70902B0C9459
:10118000000EB3E0A991A30DED91FD91F80D008142
:1011900096FD73CF889490FD0894201E0FB7907F22
:1011A0000F70902B0C94000EB3E0A991ED91FD917E
:1011B000E40DF81D008196FD60CF889490FD0894A1
:1011C000201E0FB7907F0F70902B0C94000EE02F15
:1011D000EF70122D1F70089490FD88941E0BE22D65
:1011E000FF27089490FD8894E00BF509907F9160AB
:1011F000FF2319F0E056F5099E7F11230AF4369774
:101200002E2E22200FB70E70902B0C94000E0991F9
:1012100096FDDDCF0095889490FD0894201E0FB7B1
:10122000907F0F70902B0C94000EE991F3E00081F9
:1012300096FDCDCF0095889490FD0894201E0FB7A1
:10124000907F0F70902B0C94000EE991F3E0E30D6A
:10125000008196FDBCCF0095889490FD0894201ED7
:101260000FB7907F0F70902B0C94000EE991F991BD
:10127000F80D008196FDABCF0095889490FD089401
:10128000201E0FB7907F0F70902B0C94000EE991E9
:10129000F991E30DF81D008196FD99CF0095889492
:1012A00090FD0894201E0FB7907F0F70902B0C9428
:1012B000000EE991F991E40DF81D008196FD87CFAC
:1012C0000095889490FD0894201E0FB7907F0F70B2
:1012D000902B0C94000EB3E0A991A30DED91FD911C
:1012E000F80D008196FD73CF0095889490FD0894C9
:1012F000201E0FB7907F0F70902B0C94000EB3E060
:10130000A991ED91FD91E40DF81D008196FD5FCF4F
:101310000095889490FD0894201E0FB7907F0F7061
:10132000902B0C94000E099120220FB7997F067024
:10133000902B0C94000EE991F3E0008120220FB76E
:10134000997F0670902B0C94000EE991F3E0E30D69
:10135000008120220FB7997F0670902B0C94000E0D
:10136000E991F991F80D008120220FB7997F06705D
:10137000902B0C94000EE991F991E30DF81D00817A
:1013800020220FB7997F0670902B0C94000EE991E4
:10139000F991E40DF81D008120220FB7997F0670A6
:1013A000902B0C94000EB3E0A991A30DED91FD914B
:1013B000F80D008120220FB7997F0670902B0C94B6
:1013C000000EB3E0A991ED91FD91E40DF81D0081AF
:1013D00020220FB7997F0670902B0C94000E099174
:1013E000202A0FB7997F0670902B0C94000EE9917C
:1013F000F3E00081202A0FB7997F0670902B0C94A0
:10140000000EE991F3E0E30D0081202A0FB7997FE8
:101410000670902B0C94000EE991F991F80D008163
:10142000202A0FB7997F0670902B0C94000EE9913B
:10143000F991E30DF81D0081202A0FB7997F0670FE
:10144000902B0C94000EE991F991E40DF81D0081A8
:10145000202A0FB7997F0670902B0C94000EB3E0F2
:10146000A991A30DED91FD91F80D0081202A0FB7F0
:10147000997F0670902B0C94000EB3E0A991ED912A
:10148000FD91E40DF81D0081202A0FB7997F0670A9
:10149000902B0C94000E099120260FB7997F0670AF
:1014A000902B0C94000EE991F3E0008120260FB7F9
:1014B000997F0670902B0C94000EE991F3E0E30DF8
:1014C000008120260FB7997F0670902B0C94000E98
:1014D000E991F991F80D008120260FB7997F0670E8
:1014E000902B0C94000EE991F991E30DF81D008109
:1014F00020260FB7997F0670902B0C94000EE9916F
:10150000F991E40DF81D008120260FB7997F067030
:10151000902B0C94000EB3E0A991A30DED91FD91D9
:10152000F80D008120260FB7997F0670902B0C9440
:10153000000EB3E0A991ED91FD91E40DF81D00813D
:1015400020260FB7997F0670902B0C94000EE9911E
:10155000F3E00081102F02210FB7917F027017FD79
:10156000046016FD0860902B4BC3E991F991F80DCA
:101570000081102F02210FB7917F027017FD0460C8
:1015800016FD0860902B3CC3099120160FB7102F51
:10159000987F0670117009F40160902B31C3E991B6
:1015A000F3E0008120160FB7102F987F067011709E
:1015B00009F40160902B24C3E991F3E0E30D00816D
:1015C00020160FB7102F987F0670117009F4016074
:1015D000902B16C3E991F991F80D008120160FB7F1
:1015E000102F987F0670117009F40160902B08C3CA
:1015F000E991F991E30DF81D008120160FB7102F26
:10160000987F0670117009F40160902BF9C2E9917E
:10161000F991E40DF81D008120160FB7102F987F67
:101620000670117009F40160902BEAC2B3E0A99131
:10163000A30DED91FD91F80D008120160FB7102F2D
:10164000987F0670117009F40160902BD9C2B3E045
:10165000A991ED91FD91E40DF81D008120160FB7C1
:10166000102F987F0670117009F40160902BC8C28A
:10167000099130160FB7102F987F0670117009F47A
:101680000160902BBDC2E991F3E0008130160FB7E5
:10169000102F987F0670117009F40160902BB0C272
:1016A000E991F991F80D008130160FB7102F987F4E
:1016B0000670117009F40160902BA2C209914016C6
:1016C0000FB7102F987F0670117009F40160902BEE
:1016D00097C2E991F3E0008140160FB7102F987F71
:1016E0000670117009F40160902B8AC2E991F9919A
:1016F000F80D008140160FB7102F987F06701170FB
:1017000009F40160902B7CC2099191FD1DC078C243
:10171000099191FF19C074C2099190FD15C070C262
:10172000099190FF11C06CC2099192FD0DC068C271
:10173000099192FF09C064C2099193FD05C060C27E
:10174000099193FF01C05CC2002322F40195C01BE4
:10175000D50956C2C00FD51D53C2E991F991F80DB4
:10176000CE2FDF2F4DC2E991F991F80DC081E3959D
:10177000D081D80D45C2E991F3E000810395008343
:101780000FB7997F0670902B0C94000EE991F3E04F
:10179000E30D0081039500830FB7997F0670902BAE
:1017A0000C94000EE991F991F80D008103950083E6
:1017B0000FB7997F0670902B0C94000EE991F99168
:1017C000E30DF81D0081039500830FB7997F067024
:1017D000902B0C94000E33940FB7997F0670902BCA
:1017E0000C94000E43940FB7997F0670902B0C94C5
:1017F000000EE991F3E000810A9500830FB7997F0D
:101800000670902B0C94000EE991F3E0E30D00813B
:101810000A9500830FB7997F0670902B0C94000EE9
:10182000E991F991F80D00810A9500830FB7997F2E
:101830000670902B0C94000EE991F991E30DF81DC0
:1018400000810A9500830FB7997F0670902B0C9446
:10185000000E3A940FB7997F0670902B0C94000EEF
:101860004A940FB7997F0670902B0C94000E9E7FC0
:10187000C7C19160C5C19F7BC3C19064C1C19F7D39
:10188000BFC19062BDC1977FBBC1220C0FB7987FCB
:101890000770902B0C94000EE991F3E00081000F8B
:1018A00000830FB7987F0770902B0C94000EE9917E
:1018B000F3E0E30D0081000F00830FB7987F0770FE
:1018C000902B0C94000EE991F991F80D0081000F16
:1018D00000830FB7987F0770902B0C94000EE9914E
:1018E000F991E30DF81D0081000F00830FB7987F79
:1018F0000770902B0C94000E26940FB7987F0770FA
:10190000902B0C94000EE991F3E000810695008382
:101910000FB7987F0770902B0C94000EE991F3E0BD
:10192000E30D0081069500830FB7987F0770902B19
:101930000C94000EE991F991F80D00810695008351
:101940000FB7987F0770902B0C94000EE991F991D6
:10195000E30DF81D0081069500830FB7987F07708F
:10196000902B0C94000E889490FD0894221C0FB7C5
:10197000987F0770902B0C94000EE991F3E0889407
:1019800090FD08940081001F00830FB7987F0770B7
:10199000902B0C94000EE991F3E0E30D889490FDF8
:1019A00008940081001F00830FB7987F0770902B69
:1019B0000C94000EE991F991F80D889490FD08942B
:1019C0000081001F00830FB7987F0770902B0C9445
:1019D000000EE991F991E30DF81D889490FD0894AB
:1019E0000081001F00830FB7987F0770902B0C9425
:1019F000000E889490FD089427940FB7987F077085
:101A0000902B0C94000EE991F3E0889490FD0894DB
:101A10000081079500830FB7987F0770902B0C9477
:101A2000000EE991F3E0E30D889490FD08940081A5
:101A3000079500830FB7987F0770902B0C94000ECA
:101A4000E991F991F80D889490FD0894008107952B
:101A500000830FB7987F0770902B0C94000EE991CC
:101A6000F991E30DF81D889490FD08940081079585
:101A700000830FB7987F0770902B0C94000E09918C
:101A80001881180DE72DF4E0D819D083EA95C083AA
:101A9000EA957E2EC02FD12FB3C0F4E0E72D20822F
:101AA0007A94AEC0092F0371006292FD006893FD25
:101AB000006495FD046096FD0860F4E0E72D008366
:101AC0007A949EC07394F4E0E72D208022200FB713
:101AD000997F0670902B0C94000E7394F4E0E72D20
:101AE0000081902F937107FD946006FD986002FDC0
:101AF000906203FD906484C090610991EEEFF2E082
:101B0000BBC0E72DF4E0E3950081E395902F93713E
:101B100007FD946006FD986002FD906203FD9064ED
:101B2000C081E395D081D80D7E2E0091A8010023BD
:101B3000B1F05092A8010091A901002371F09F9388
:101B4000CF93DF93C091AA01D091AB010E941119EC
:101B5000DF91CF919F91509208020E94DB0050C00C
:101B6000E72DF4E0E395C081E395D081D80D21966F
:101B70007E2E46C0696C6C2E206F70630A00AFD158
:101B8000E4E7FBE10E94621200916C010A95009368
:101B90006C0131F70C944A1B03E0802E0FEF702E7E
:101BA0000E94DA1866240091170200FFF1F000E4A9
:101BB000602E50922702E0912502F0912602C193F7
:101BC000D19351925192A0911D02B0911E0229E130
:101BD00038E200E20E949410A0911F02B09120020E
:101BE00029E138E200EF0E94941050920A0290E23C
:101BF00001E000936C015092A8010FEF00931602D0
:101C0000662041F4FEE3E991EE0FF51D0591159173
:101C1000F801099467FC10C066FC4CC09F7E64FC10
:101C200012C095FD05C063FC1EC062FC21C057D1E7
:101C3000062D037F602EE6CF0091170200FFA4CF90
:101C40000FE7602248C00091A801109116020123FD
:101C500019F00FEE6022D6CF6092A8010FEE60223D
:101C6000ECEFF2E009C007EF6022EAEFF2E004C017
:101C70000BEF6022E8EFF2E001911191180DE72DD2
:101C8000F4E0D819D083EA95C083EA95C02FD12F0C
:101C9000092F0371006292FD006893FD006495FDB9
:101CA000046096FD08600083EA957E2E9F7B90621B
:101CB000A9CFF8C000912702002369F4E091250222
:101CC000F0912602A191B1910A2F0B2B91F3AC1741
:101CD000C9F7BD17B9F7009174010093190200917B
:101CE0001D02009374010091750100931A02009186
:101CF0001E02009375010091760100931B02009172
:101D00001F02009376010091770100931C0200915D
:101D1000200200937701009130010093210220916D
:101D2000230220933001009131010093220230916F
:101D30002402309331010E9410110091840100931C
:101D4000180250928401CBD050922702EC2EFD2E27
:101D5000922CA32CB42C0E949C1BA0E4B1E00D910A
:101D60000C3621F10236C9F10D36A1F00636C1F06C
:101D7000083779F0033751F0043731F0013719F0A3
:101D80000436E9F1E8CF00CF00E4602E01E00093D3
:101D900027024DC01230F9F60D910E94631CDBCF73
:101DA0001330C9F60D910E94751CD5CFE091250224
:101DB000F091260221913191022F032B61F2CE2E58
:101DC000DF2E33500E94591025E331E00E94561255
:101DD0000E94CE11EC2DFD2DEDCF123009F0BBCFBE
:101DE00066D0E0912502F091260201913191032BFA
:101DF000E1F751925082029122931293ACCF1230AC
:101E000009F0A9CF54D0E0912502F091260201916A
:101E100031910117E1F73217D1F7AE2FBF2FE25002
:101E20000D913D9101933193032BD1F794CF009104
:101E3000740100931D020091190200937401009136
:101E4000750100931E0200911A0200937501009122
:101E5000760100931F0200911B020093760100910E
:101E600077010093200200911C02009377010091FA
:101E70003001009323022091210220933001009130
:101E800031010093240230912202309331010E94EB
:101E900010110091180200938401CE2DDF2D292C02
:101EA0003A2C4B2C062D0F7B09F4ACCEB7CE0D91FE
:101EB0000E9449102D5F089550433D0020413D0090
:101EC00020583D0020593D0020503D0020533D004A
:101ED0000E947E1025E331E00E9456120895CF93B0
:101EE000DF93E8EBFEE15C2F6D2F0E946212252F3D
:101EF000362F38190E945910EDDFECEBFEE10E94FD
:101F00006212222DE5DFE0ECFEE10E946212232D39
:101F1000DFDFE4ECFEE10E946212242DD9DFE8EC61
:101F2000FEE10E946212272DD3DFECECFEE10E945D
:101F30006212292FCDDF0E94CE11DF91CF9108953B
:101F4000CEDF5ECE0E1124113F115E117211881189
:101F5000C811ED11F4114D12F40FFA0F0E103A10D2
:101F600057107A108310AF10BA10C910D5106C1228
:101F70000113091341138413AD136617D017941678
:101F8000D6161817BB14F900BD18CF18DA182B197C
:101F9000AB19D219FE192F1A511A911AAC1AC21A7A
:101FA0008F1C941C961C27165516E4E4FFE109913A
:101FB000E00FF51D05911591F801099521CE222319
:101FC00089F02A950D91332311F0119101C01591DB
:101FD000011730F019F4002331F0F1CF01E008953A
:101FE0000FEF089500270895349C00920E0210927E
:101FF0000F02089500910E0210910F02209110021D
:1020000030911102029F402D512D129F500D039FC0
:10201000500D40930E0250930F02089500910E024E
:1020200010910F022091100230911102EE24FF183E
:1020300041E1001F111F4A9549F400930E021093CD
:102040000F02E0921002F09211020895EE1CFF1CA4
:10205000E21AF30A20F4E20EF31E8894EACF089401
:10206000E8CF019F202C312C029F412C300C08F42A
:1020700043940895A32DB42DBD5F2F923F924F92AC
:1020800008D04F903F902F9010931202209313028C
:1020900008950AE010E020E03D91332339F03053F9
:1020A000E0DF122D232D130F251DF6CF0895232DCC
:1020B000342D5527E5E3F1E000E117E20DD008EEFD
:1020C00013E00AD004E6112707D00AE005D051E05A
:1020D00001E002D0519208954FE24395201B310B4D
:1020E000E0F7200F311F513019F0403311F051E06B
:1020F00041930895232D342D51E0DCCF5527E5E39E
:10210000F1E03327DFCF62B300916D0101FD939AB7
:10211000E32DF42DFD5FA081B181BD5F228133816C
:10212000048102D062BB0895132F312F0D933A958D
:10213000E9F72A95D1F7089562B300916D0101FD89
:10214000939AE32DF42DFD5FA281B381BD5F84815D
:10215000958100811181E02FF12FFD5F08959F93FC
:10216000EBDF03D09F9162BB089501910D9301971E
:10217000E1F708959F93E0DF03D09F9162BB08953C
:10218000E80FF91FA80FB91F02910E930197E1F70D
:10219000089562B39F93D5DF93980191939A0D931D
:1021A0000197D1F79F9162BB089562B39F93C9DFF6
:1021B000939A019193980D930197D1F79F9162BBE8
:1021C0000895E083F183E283F38354820895C22F5C
:1021D000D32F4481AC2FBD2F08811981C02FD12F5F
:1021E000C21711F4D31721F00C81401708F0F2CF79
:1021F000C083D183A283B383EA83FB83CA2FDB2FFF
:10220000E883F9830895C281D38100811181088315
:102210001983E02FF12FC283D3830895232D342D0A
:1022200000919401309F020E151C00917401000E64
:1022300000917501101E00922E0110922F01209323
:102240003001309331010895A0913001AA2369F043
:10225000AA95A0933001A0912E01B0912F01119762
:10226000A0932E01B0932F010895A0913101AA23CC
:10227000D9F3AA95A0933101A0919401E9CFA0913F
:102280003001A395B0919401AB1761F0A093300198
:10229000A0912E01B0912F011196A0932E01B09321
:1022A0002F010895A0913101A395B0919501AB172D
:1022B000C1F3A093310150923001EACFA0913101D6
:1022C000AA2379F0AA95A0933101A0912E01B09193
:1022D0009401AB1BA0932E01B0912F01B509B093CF
:1022E0002F010895A0913101A395B0919501AB17ED
:1022F00071F0A0933101A0912E01B0919401AB0F28
:10230000A0932E01B0912F01B51DB0932F01089518
:10231000CF93DF9303D0DF91CF91089500913201E5
:102320000023E1F4E0917401F0917501CE2FDF2FCD
:1023300000919401C00FD51D309195013A950091FF
:102340009401199111930A95E1F73A95C1F700911B
:10235000940110E211930A95E9F708950091330171
:10236000039500933301109195010117D9F650920E
:1023700033010E940513013741F00A3099F60091AC
:1023800095010A9500933301CDCF00933401089550
:10239000CF93DF9303D0DF91CF910895A0912E01C9
:1023A000B0912F014091300110919401141B509273
:1023B000300100913101039530919501031749F0E7
:1023C00000933101A10FB51DA0932E01B0932F01F1
:1023D0000895A4DFA41BB509F7CFCF93DF93222D77
:1023E0000AD0DF91CF910895CF93DF93222D14D09F
:1023F000DF91CF910895203278F42A3079F221319B
:10240000E9F12231E1F12331D9F12431D1F1283040
:10241000C9F12930F9F10895A0912E01B0912F0151
:10242000009195010A9510913101011761F4009115
:1024300094010A9510913001011729F46FDF009182
:102440009401A01BB5092D93A0932E01B0932F01E9
:10245000A0913001A39500919401A01719F0A093C9
:102460003001089550923001A0913101A39500915F
:102470009501A01711F0A09331010895E5CE32CF58
:10248000FECE1CCFE1DEA0912E01B0912F0100E223
:102490000C93089520E2C0DFBFCFCF93DF93E32DED
:1024A000F42DFD5F05D0DF91CF910895E22FF32F3A
:1024B0002191222331F0EF93FF939DDFFF91EF9164
:1024C000F7CF08952591222331F0EF93FF9393DF07
:1024D000FF91EF91F7CF0895509220015092210182
:1024E000E0E0F1E000E251920A95E9F75092220112
:1024F0005092230152B800E101B906EF0CBF0895D4
:102500001127E2B1E7FF0895E3B120912001E03FF8
:10251000D9F125FD27C0E03ED9F1E231D9F1E93505
:10252000C9F1E131C9F1E431C9F1E835C9F121FD61
:102530003BC022FD41C0F1E00E2FEF71F083E02F90
:10254000002720FD00E824FD00E8FDE3E00F0491F2
:1025500023FD51C00093210111E02F7E2F7D209398
:1025600020010895E23151F0E93541F0E13141F0C7
:10257000E43141F0F1E0EF715082EFCF2E7FEDCFEB
:102580002D7FEBCF2B7FE9CF509221012062E7CF47
:102590002061E5CF2160E3CF2260E1CF2460DFCF6F
:1025A00008E02027DCCFD6CFEE3111F400E4D4CF01
:1025B000E63299F603E2D0CF00916C01002359F482
:1025C000EC3219F450928401C8CFEA3331F602E0BC
:1025D00000938401C2CFE33231F408E0E0910A02B3
:1025E0000E23602ABACFE63719F400E8602AB5CF87
:1025F0000E2F0058B1CF0136B0F20B37A0F60052C3
:10260000D2CF03D000931402089507D00023E9F33A
:10261000089503D0009314020895009122011091AF
:102620002301011700E059F01A3009F41127E4E200
:10263000F1E0E10FF51D008113951093230108953A
:102640000FB9779BFECF08950FEF0FB9779BFECFA1
:102650000FB10895C398F4DF062FF2DF052FF0DFE6
:10266000042FEEDF032FECDF05E9EADF14E6ECDFF1
:102670000F3F11F41A95D9F7202FC39A0FEFE0DF1F
:102680000895F89401D03CC0C39A03E50DB95EB833
:102690000FEF10E1D5DF1A95E9F774E633274427E9
:1026A0005527662700E4D6DF112319F0213009F4FD
:1026B00003C07A95B9F715C074E607E7CBDF11239D
:1026C00049F0213039F409E6C5DF112319F022233E
:1026D00009F403C07A9589F704C000E50DB9002715
:1026E00008950FEF0895E32DF42DFD5F4081518192
:1026F000628103811481E02FF12FFD5FF89408952A
:10270000009315020C941100EEDF01D0F9CF3327AE
:10271000440F551F661F01E59DDF112361F0222341
:1027200051F4C39820E811278FDF0E3F39F01A9536
:10273000D9F72A95C1F7C39A0FEF0895112722E020
:1027400083DF01931A95E1F72A95D1F77DDF7CDFCE
:10275000C39A0FEF75DF00270895C5DF01D0D0CFF2
:102760003327440F551F661F08E574DF1123E9F076
:102770002223D9F4C3980EEF63DF112722E00191E1
:102780005FDF1A95E1F72A95D1F70FEF59DF58DF90
:102790005BDF0F71053049F420E8112755DF002376
:1027A00039F41A95D9F72A95C1F7C39A0FEF08950E
:1027B000C39A0FEF45DF0027089546415431360094
:1027C0003C6469723E0087C05092B601F8940E9442
:1027D000441318E00023B9F7DD24EE24FF24442736
:1027E00055276627E0E0FEEF0E94871311E00023E3
:1027F00051F7A6E3BEEFEAEBF7E223E033270E94AE
:10280000DF0F0023C1F012E0EEEFFFEF019105357D
:10281000D1F601910A3AB9F6E6ECFFEF41915191F8
:102820006191D42EE52EF62EE0E0FEEF0E94871394
:1028300013E0002341F614E0EEEFFFEF01910535C0
:1028400011F601910A3AE1F7A6E3BEEFEAEBF7E2EF
:1028500025E033270E94DF0F15E00023E1F516E0A5
:10286000E0E0FEEF03850023B1F50485023099F521
:10287000A7EBB1E00685D00E0785E01EF51CDD92C2
:10288000ED92FD92008916891093FD01278920930E
:10289000FE010E9431102D0C3E1C4F1C2D923D92CA
:1028A0004D920189128916950795169507951695EB
:1028B0000795169507950D931D93200E311E451C07
:1028C0002D923D924D9205850D935092C30110E0DB
:1028D00001E00093B6010C9411001F810091C20128
:1028E0001F3F81F01395101788F41F8311E00C81AE
:1028F000010F0C830D81051D0D830E81051D0E83B7
:1029000010E0089518811A8319811B831A812B8185
:10291000183F20F02F3F11F418E008955F82125005
:1029200025090E9431100091BF01200E0091C001C5
:10293000301E0091C101401E2C823D824E82E7EB89
:10294000F1E02B814191420F5191551D6191651D1F
:10295000E0E0FEEF0E94871314E0002359F4E0E06A
:10296000FEEF1A81110FF51DE10F119121911A83CC
:102970002B8310E00895CF93DF93E32DF42DF80D12
:10298000C081D181D80DF8941FEF1F83A6DF1830C6
:10299000D9F01123C9F41A812B81183FE0F02F3FA1
:1029A000D1F400910102002379F4209100022B83DD
:1029B00022931091FF011A8312931BD010E200237F
:1029C00019F41EEF1F8311270E941100DF91CF9190
:1029D00010931502089500910102002339F00FEFC2
:1029E0000293029306D010E2002371F71EEF1F83BB
:1029F000CDCF669557954795E0E0FEEF0C94B01368
:102A000001910D930023E1F70E9108955092B601C4
:102A10000895772331F4509280B700E8702E07EBC9
:102A2000802E0091C301002369F4EAEBF1E04191AB
:102A300051916191B190C19088279927D42EE52EAC
:102A4000F62E0EC0C5ECD1E00FEF0F83C5ECD1E040
:102A500044DF1830D9F01123C9F64C815D816E81B5
:102A60004093FF015093000260930102E0E0FEEF0B
:102A70000E94871311E0002349F6E0E0FEEF3324C3
:102A8000309202021081112309F45FC003850F30D8
:102A900051F1153E31F1202E772311F4948CA58C41
:102AA000723009F1EF93FF93A1EEB1E028E00191BC
:102AB000003229F00D932A95D1F703C001912A9590
:102AC000E9F70081003249F00EE20D9323E0019115
:102AD000003219F00D932A95D1F75C92713021F4F0
:102AE00045C07230A1F123C0A72DB82D022D007171
:102AF00041F4292D3A2D0E947C10E5E3F1E080DFBE
:102B000006C0E0ECF7E205910D930023E1F714E035
:102B100000E20D931A95E9F7E1EEF1E071DF0AE0CA
:102B20000D935D925C927A2E8B2EFF91EF91B09671
:102B30003394032D003179F40091C301002361F433
:102B400001968B1551F49C1541F4713011F010E091
:102B5000089512E0089594CF79CF4D2D5E2D6F2DFD
:102B6000439519F4539509F4639568CFE1EEF1E0CC
:102B7000A091DD01B091DE012CE031E00E94DF0F79
:102B8000002399F6FF91EF91C091DF01D091E00110
:102B9000028D0883038D09830FEF0F83048D08874F
:102BA000058D102F01700987268D378D3695279555
:102BB00017951A872B8710E008950091C3010093A1
:102BC000C401002361F0AF93BF93E5ECF1E0A1ED08
:102BD000B1E08CE099270E94B510BF91AF910895A4
:102BE0000091C4010093C301002341F0E1EDF1E045
:102BF000A5ECB1E08CE099270C94B51008952092D3
:102C00002E0230922F024092300270923102809256
:102C1000320290933302C0933402D093350210E80D
:102C20000091B601002308951093150220902E0202
:102C300030902F024090300270903102809032022A
:102C400090913302C0913402D09135020895D7DFBC
:102C500009F026D0E9CF10E80091B6010023F9F081
:102C60001FD01123E1F4F12E5091320101E00093C5
:102C700032015092340108E1E09131010E1B0093C2
:102C80003301E0E8F7EB0E94581200913401002371
:102C900019F400810023B9F7509332011F2D0895D4
:102CA000F8947727B6DE0C941100A9DF21F0A32D4C
:102CB000B42DB80D01D0B8CF10E80091B6010023B3
:102CC00071F31127F8940C910F3219F45092C3014B
:102CD0000D910C91002319F1A093DD01B093DE0159
:102CE00066240D91002319F00F32D9F7602E5E9201
:102CF000C5ECD1E0C093DF01D093E00171E0AF9368
:102D0000BF9387DEBF91AF916C92112341F4022DE6
:102D1000007139F001E00093C3016620C9F60C94FC
:102D200011001FEF0C9411006ADF69F0E32DF42D00
:102D3000F80DA281B381B80DC081D181D80DF8946E
:102D400003D00E94110070CF38DFEA2FFB2F11E073
:102D5000019113950023E1F71A95A1F002910F322A
:102D6000D9F75082EF93FF93CF93DF936F92A4DF55
:102D7000F8946F90DF91CF91FF91EF910FE2019363
:102D8000112399F4E093DD01F093DE01C093DF019C
:102D9000D093E00171E00081002309F472E039DE94
:102DA000713019F4022D0071102B1ACF10E8009128
:102DB000B601002301F1082DCF93DF933F924F928C
:102DC0007F928F922F92E32DF42DF80D74808580E1
:102DD000800EC081D181D00F222009F4F8940ED04A
:102DE0002F90222011F40E9411008F907F904F901D
:102DF0003F90DF91CF911093150208956EDD18304A
:102E000099F0112391F44C815D816E81E72DF82DAD
:102E100072B300916D0102FD939A0E94871372BBF9
:102E200010E1002311F4112708955092B60108957E
:102E3000E6DE71F0082DE32DF42DF80D7480858009
:102E4000800EC081D181D00FF89403D00E94110070
:102E5000EBCE43DD183099F0112391F44C815D8164
:102E60006E81E72DF82D72B300916D0102FD939AEA
:102E70000E94B01372BB10E2002311F411270895D1
:102E80005092B6010895E0E0FEEF17811C3469F41A
:102E900010851F3451F41185113439F4128514341E
:102EA00021F4738484841127089511E00895E32D9B
:102EB000F42DF80DA281B381B80D24813581380D30
:102EC000C081D181D80DE22FF32F089598DE21F033
:102ED000EEDF6F9202D06F90A7CE10E80091B6019E
:102EE000002399F3F8947E2E8F2E7092EE0180923B
:102EF000EF01EF2B6E2E28DF1123E9F4C52CD52C22
:102F0000AA84BB84662089F40A2D0B2971F063948E
:102F1000E0E0FEEF7E2E8F2E71DF112361F4882713
:102F200092E026D083948394C394CA1411F4DB14E2
:102F300049F064DF1123D1F483948394C39409F49A
:102F4000D394F3CF88859985082F092B71F0A72D8D
:102F5000B82DE0E0FEEF7E2E8F2E50DF112331F4EE
:102F6000662011F405D001C010D010E00C941100BF
:102F70008ADF112321F0E0EDFCE07E2E8F2E70928F
:102F8000EE018092EF01A72DB82DE0E0FEEF72B3C5
:102F900000916D0102FD939A0E94B51072BB0895D5
:102FA0002EDE11F084DF01D03FCE10E80091B60193
:102FB000002309F1F8947E2E8F2EC6DE1123C9F46A
:102FC000AA84BB84C884D984CD2819F0A39409F4B9
:102FD000B394C52CD52CCA1411F4DB1449F039DF95
:102FE000112339F483948394C39409F4D394F3CFD5
:102FF00010E00C941100089501E0098B0895A98553
:10300000BA85BD5FEB85FC85FD5F3D814E811F81EB
:10301000288500916E01401758F04195421760F7DE
:10302000512F53955695459FA00DB11D241B442744
:10303000041B021708F4202F9927303A58F0932FD9
:1030400091959117C8F63170930F191BA9F29695B7
:10305000A90FB51D00EA031B011720F4101B912FC7
:103060009695102F50917801609179010091880117
:10307000049F500D611D032F0695500F651DFA88A2
:10308000EF2CE2945D876E87288B012F039530FD2E
:10309000039506950F87C52FD62FD2B200916D01EB
:1030A00000FD939A40918801812F13951695411B3D
:1030B000317001F5312F0D9178817193602F607F10
:1030C0006E1579F0602F6F706F1581F009933A9546
:1030D00091F7A90FB51DC40FD51D2A9559F7D2BA7E
:1030E00008950F70672F607F062BECCF007F7F70F5
:1030F000072BECCF312F5881507F0D917881719340
:103100000295602F6F706F15C9F05E15D1F0652BB9
:103110006993007F502F3A9581F7817039F40881C7
:1031200001935E1511F00F70052B0883A90FB51DD3
:10313000C40FD51D2A95F1F6D2BA0895672F6F7086
:10314000E4CF572F507FE3CF3D854E851F852889DB
:10315000C32FD42F62B300916D0100FD939A40916B
:103160008801411B312F0D9109933A95E1F7C40F66
:10317000D51D2A95B9F762BB0895E32DF42DFD5FA7
:1031800001E0018B23E032E0CF93DF9380920802CD
:103190000E94E71050920802DF91CF910895E32D2D
:1031A000F42DFD5F0189013019F003E0018B0895D2
:1031B00004E0FCCFE3E0F2E00FEF009308020E948E
:1031C000E11050920902509208025092A90108950C
:1031D000E3E0F2E05091090202811381E02FF12F28
:1031E000E33011F4F230A9F00481051790F0018961
:1031F0000130A1F0043049F0CE2FDF2FAB85BC8524
:10320000BD5FA2DF0189023039F3518A0E940311A8
:10321000E3CF00811181E02FF12F089502E0018BAF
:10322000DBCFDF92EF92FF92C33011F4D23079F00E
:103230000989013011F402E0098BCF93DF93DFDEBF
:10324000DF91CF9108811981C02FD12FEDCFFF9051
:10325000EF90DF900895CF93DF93C32DD42DDD5FE2
:10326000588EFC800D811F81100F6B89060F6C89B1
:10327000161B101708F400274E815885540F6D89CE
:10328000460F6E89561B541708F44427E3E0F2E01A
:1032900020813181233019F4323009F441C0E22F0A
:1032A000F32FE788E514A1F7E480EF1489F3258173
:1032B0003781320F6389260F6489361B321708F471
:1032C0002227301718F0311708F409C0201718F01A
:1032D000211708F404C00217D8F23117C8F226816A
:1032E0003085320F6589260F6689361B321708F440
:1032F0002227341718F0351708F409C0241718F0DE
:10330000251708F404C0421718F2351708F2688D23
:10331000C60FD51DE98EC61BD5096395688FB8CF3A
:10332000DF91CF91089562B300916D0100FD939AF2
:103330000895C0917801D0917901220FC20FD51D57
:1033400020918801129F102D212D08E00E9431103C
:10335000C20DD31D0895E7DF4C2F5D2FD22CE32C37
:10336000F42C232D142D322D07D0C42FD52F2D2C26
:103370003E2C4F2C62BB0895DCDFE091A401F0915C
:10338000A50100E1039FE00DF11D08E020918801F7
:1033900022501191199311911993C20FD51D0A95BD
:1033A000C1F70895C0DF4C2F5D2FC22CD32CE42C25
:1033B00007D0C42FD52F2C2C3D2C4E2C62BB08954A
:1033C000A0919601B091970100919E0110919801F2
:1033D000209199010E943110A20DB31D00919A0114
:1033E000A00FB51D1091A1012091A001A2DFF090C6
:1033F000A3013D91C2DFFA94E1F7089594DF5C2FB9
:103400007D2FB22CC32C442D07D0C52FD72F2B2CAA
:103410003C2C442E62BB0895A0919601B091970177
:1034200000919C0110919A0120919B010E94311002
:10343000A20DB31D00919801A00FB51D1091A1011F
:103440002091A00176DFF090A201DC2EED2E3D91BF
:1034500094DFCD2DDE2D2296FA94B9F7089563DF1F
:10346000032D142DD22C02D062BB0895E091780177
:10347000F091790140918801149FE00DF11D402FDA
:103480004695E40FF51D4081502F517031F4D294D0
:103490004F704D29D29440830895407F4D29408339
:1034A000089541DF032D142D2091A6013091A7012D
:1034B000D22C201720F0E22EE01A81E003C0E02E8B
:1034C000E21A8FEF311720F0F32EF11A71E003C0EA
:1034D000F12EF31A7FEF9E2CAA249F18A508C6DFB1
:1034E000021711F41317D9F0A92DBA2DAA0FBB1F7B
:1034F000B7FF06C0BF3F49F4F194FA1628F4F194DF
:103500009F18A508080F01C0F194B7FD04C0BB23A4
:1035100029F4AE1518F49E0CA51C170FE0CF62BB62
:103520000895E32DF42DFD5FA081B181BD5F34814D
:1035300045815681678102811381E02FF12FFD5F64
:10354000032F1D9111930A95E1F7A50FB51DE60F05
:10355000F51D4A95A9F70895E32DF42DFD5FA0818F
:10356000B181BD5F22813381E22FF09191011091F1
:1035700092010D910083F3951A95D9F7E3953A9549
:10358000A1F70895DC2EED2EE32DF42DFD5FA08133
:10359000B181BD5FF280F80C43814D5F648125816C
:1035A0003681E22FF32FFD5F7091920100E5709F4D
:1035B000202D312D2C52304056E19E2EAF2E0D91F4
:1035C000079FC02DDF2DD10DBA2ECB2EB42F872F04
:1035D000A9910A2FA07FA2951C911193A02FAF70E3
:1035E0001C9111930EE4E00FF51D8A9589F7E92DE2
:1035F000FA2DAB2DBC2D32965A95F9F6E20FF31F3A
:103600006A95D1F6CD2DDE2D0895636D64206E6F21
:103610007420666F756E640A0000696C6C2E206100
:1036200072670A006572722E200063640000667380
:10363000696E697400006C6F616400006C73000057
:103640007065656B0000706F6B6500007265736577
:103650007400736176650000737973007370696C30
:103660006F00737069686900151B171B1B1B1E1BFD
:10367000201B231B261B291B2C1B2E1B311BD2C0DE
:10368000A8C0DFC0BBC01BC12CC141C1FBC036C13B
:1036900040C142C151D0E8E6F6E34427A0E4B1E0DE
:1036A000059125910E2E1F2E000F221FE02FF22FC5
:1036B000212E2FEF33270E94DF0F122D002371F0F0
:1036C000E02DF12D43954B3049F70091B6010023D1
:1036D00051F4EAE0F6E30E946212DCCFEFE3FBE193
:1036E000E40FF51D0994A0E4B1E00D91002341F031
:1036F0000136D8F30B37C8F700520E930D91F5CF72
:1037000042D0112381F0A0E4B1E00D91002341F0FB
:103710000134D8F30B35C8F7005E0E930D91F5CF49
:1037200032D01123B1F6A091EE01B091EF013CD05F
:10373000002379F20C94CC0D0E940513202F0E94D7
:10374000FB112A30C9F7A0912E01B0912F010091F1
:103750009401A01BB040E0E4F1E011272D9120324C
:1037600019F40A95D9F70AC0139521930A9531F0F7
:103770002D91203209F0F9CF5192F3CF10936901C6
:103780001123D1F20895ABE3B1E006D0112319F073
:10379000A0E4B1E001D00895EE27FF27C0EFD1E00B
:1037A00050926D010C946D170D910C3481F4CD91F4
:1037B000DD91DD5F0D91013451F40D91053539F442
:1037C0000D91043521F40D910F3409F4089500276B
:1037D00008950E94E413112309F45CCFE4E2F6E3B8
:1037E0001F930E9462121F91212F0E947E1025E3D9
:1037F00031E00E9456120E94CE114CCF113069F078
:103800000E94DD150E945C16112341F70E942B16C1
:10381000112321F70E94F0153DCF0E942B16112392
:10382000E9F638CF113039F00E94DD150E945C16A0
:10383000112321F42FCF5092C3012CCF0E94F015F9
:10384000CDCFEE27FF27CA2FDB2F123098F139F0AA
:103850000D910023E9F70E944910E12FF22FAC2FC0
:10386000BD2FC0EFD1E00E946D17112351F4A0913C
:10387000EE01B091EF0198DF002311F00C94CC0D14
:1038800009CFACCFE0EDFCE01230A0F059F0CA2F28
:10389000DB2F0D910023E9F70E944910E12FF22F51
:1038A000AC2FBD2FC0EFD1E00E94D517112309F432
:1038B000F1CE94CFEAE1F6E30E946212EBCE123031
:1038C000C9F701D0E7CE0E9449102D5FE12FF22FFA
:1038D00020810E947E1025E331E00E9456120C9454
:1038E000CE11133039F701D0D5CE0E9449102D5F8B
:1038F000E12FF22F0E944910108308951230D1F663
:103900000E9449102D5FC12FD22F0C94CC0D0C9426
:103910001E1E0E94941CBECE0E94961CBBCE2FB8C9
:10392000779BFECF2FB0089591980895919A0895AE
:1039300018666618623C060C300000000000003C6F
:10394000183C3C067E3C7E3C3C00000E00703C3C3B
:10395000187C3C787E7E3C663C1E666063663C7CE0
:103960003C7C3C7E66666366667E3C003C080040AC
:103970000000000000000000000000000000000047
:10398000000000000000000000003C183C00361859
:1039900066663E66660C1818661800000003661816
:1039A00066660E6066666666000018001866663C0D
:1039B00066666C60606666180C6C60777666666634
:1039C00066661866666366660630600C1400400022
:1039D000600006000E00601806603800000000005D
:1039E00000001800000000000030180C007F18666E
:1039F000FF600C3C18300C3C18000000066E3806C6
:103A0000061E7C600C66661818307E0C066E6666B4
:103A1000606660606066180C78607F7E66666666C9
:103A200060186666633C660C30300C2200203C60F7
:103A30003C063C183E6000006018667C3C7C3E7C86
:103A40003E7E66666366667E30180C007F180066F0
:103A50003C183800300CFF7E007E000C76180C1CE1
:103A600066067C183C3E00006000060C6E7E7C60A2
:103A70006678786E7E180C70606B7E667C667C3C27
:103A80001866666B183C1830180C000000067C6045
:103A90003E663E667C38066C187F666666666660C3
:103AA0001866666B3C660C70180E397F0000FF06C6
:103AB000306700300C3C1800000018661830067F94
:103AC00006661866060000307E0C18606666606642
:103AD00060606666180C7860636E666066780618CB
:103AE00066667F3C1830300C0C0000003E66606655
:103AF0007E186666180678187F66666666603C18EB
:103B000066667F18661830180C4E3E0000667C66AC
:103B10006600181866181800183066186066066681
:103B200066186666181818001800626666666C608B
:103B3000606666186C6C60636666603C6C661866EE
:103B40003C7766186030060C0000006666606660B0
:103B5000183E6618066C186B66667C3E6006186632
:103B60003C3E3C3E3030180C001C18006618463FA6
:103B7000000C300000180018603C7E7E3C063C3C87
:103B8000183C3C00180E0070183C667C3C787E6047
:103B90003C663C38667E63663C600E663C183C18AA
:103BA0006366187E3C033C007F003E7C3C3E3C1834
:103BB00006663C06663C63663C6006607C0E3E180A
:103BC00036660C7E3C183C00080000000000000037
:103BD00000000000300000000000000000000000B5
:103BE00000000030000000000000000000000000A5
:103BF00000000000000000000000000000000000C5
:103C00000000000000000000000000000000007C38
:103C100000003C0000000000600600000000000002
:103C20000078000018000000F8940027112724E114
:103C30000A95F1F71A95E1F72A95D1F702E00EBF40
:103C400007EF0DBF55240FEF0ABB0BEB07BB04E4D6
:103C500008BB0FEF04BB0AE201BB07E102BB0FEF99
:103C600006B900E8009361005092610000E805BFCA
:103C700050926D010E946C120E94DA180E941A0183
:103C8000222733270E941011509232015092AC012A
:103C90005092AE015092290257BC5FBC5EBC50925C
:103CA0001702509223025092240200E00093250252
:103CB0000EEF0093260250926C010E94E413789458
:103CC000E4EEFCE30E946212ABE3B1E00FE20D937D
:103CD00002E40D9309E40D930EE40D930FE20D93AE
:103CE0000C944A1B723136322076312E362E340A2D
:023CF0000000D2
:103E00007C0D2F0ABF0DBF0DBF0DF7094C0CA00F85
:103E1000520DEF09450CBF0DBF0D0C0A630CC40D0C
:103E2000980B3D0ABF0DBF0DBF0D010A570CBF0D0A
:103E3000370C230ABF0DBF0DBF0D170A6F0CBF0D46
:103E40003F0DD309BF0DBF0DA70A9B09BD0CBF0DC8
:103E50006D0D9309B30CBF0DB50AB009DA0CBF0D97
:103E6000940BE109BF0DBF0DBF0DA509CB0CBF0D14
:103E7000390CC709BF0DBF0DBF0DBB09E90CBF0D44
:103E8000810D8B0ABF0DBF0DBF0D530A830CBF0DF3
:103E90004D0D4B0A7C0CBF0DAD0B680A9A0CBF0D83
:103EA000A00B990ABF0DBF0DBF0D5D0A8E0CBF0D93
:103EB0003F0C7F0ABF0DBF0DBF0D730AA60CBF0DCF
:103EC000B00DC108BF0DBF0DBF0D7008030DBF0DB4
:103ED000620D6308F90CBF0DB30B8F08200DBF0DE9
:103EE0009C0BD408BF0DBF0DBF0D7F08110DBF0D7A
:103EF000410CB008BF0DBF0DBF0D9F082F0DBF0DAA
:103F0000BF0DE707BF0DBF0D0508CD07F707BF0DB4
:103F1000300CBF0D1B08BF0D0E08D6070008BF0DE3
:103F2000900BEF07BF0DBF0D0908D107FB07BF0DB1
:103F30002B08E1073B08BF0DBF0DDB07BF0DBF0D11
:103F4000990749076507BF0DA10711076D07BF0D49
:103F5000230809071308BF0DB60726078207BF0D00
:103F60008C0B5707BF0DBF0DAB071B077707BF0DA6
:103F7000430C3D073308BF0DC10731078D07BF0D47
:103F80005E0B160BBF0DBF0D690BCF0AF90BBF0DF2
:103F9000F20BC40A290CBF0D760BEA0A100CBF0DF8
:103FA000880B270BBF0DBF0DBF0DDC0A040CBF0D26
:103FB0003B0C070BBF0DBF0DBF0DF80A1C0CBF0D4E
:103FC000380B6B09BF0DBF0D430B1509BB0BBF0DA4
:103FD000EB0B07090807BF0D500B3609D20BBF0DBD
:103FE000840B7F09BF0DBF0DBF0D2509C60BBF0D8B
:103FF0003D0C5909BF0DBF0DBF0D4709DE0BD50F95
:103D0000000000051C01020000001D06040900005F
:103D1000000000000071310000007973617732000B
:103D20000063786465343300002076667472350071
:103D3000006E6268677A360000006D6A7537380079
:103D4000002C6B696F303900002E2D6C7B702700C2
:103D500000007D005B5E000000000A5D00240000A2
:103D6000003C000000000800003100343700000073
:103D7000302E323536387F10002B332D2A390F0084
:103D8000000000070000000000000000000000002C
:103D90000000000000512B00000059534157221E23
:103DA0000043584445002A1F00205646545225001F
:103DB000004E4248475A260000004D4A552F280021
:103DC000003B4B494F3D2900003A5F4C5C503F009F
:103DD000000060007C7E000000000A21007F0000DF
:103DE000003E00000000080000180011170000004D
:103DF000191A123513147F00002B162D0E15000012
:00000001FF
